S0120000446561665F676C6F76652E7372656326
S11300000C942A000C943F000C943F000C943F0085
S11300100C943F000C943F000C943F000C943F0060
S11300200C943F000C943F000C943F000C943F0050
S11300300C943F000C943F000C943F000C943F0040
S11300400C943F000C943F000C943F000C943F0030
S11300500C943F0011241FBECFE5D8E0DEBFCDBF16
S113006011E0A0E6B0E0ECEDF1E102C005900D92E4
S1130070A637B107D9F70E9474050C94EC080C94C8
S1130080000087B1806487B987B18F7787B987B15A
S11300908F7D87B986B18E7F86B986B1826086B935
S11300A086B1846086B9089586B1806886B908955A
S11300B086B18F7786B90895CF93C82F0E945800D0
S11300C087B1807E87B987B1C82BC7B90E94540015
S11300D086B1806486B93699FECF84B165B1637008
S11300E070E0762F6627682B072E000C880B990B7F
S11300F0CF9108956DE171E080E091E00E94940356
S11301008FE39CE90197F1F700C0000060E670E01E
S113011080E090E00E9494038FE39CE90197F1F75B
S113012000C0000067E670E080E191E00E94940363
S11301308FE39CE90197F1F700C000006CE670E0E2
S113014080E190E00E9494038FE39CE90197F1F72A
S113015000C0000069E770E080E291E00E9494032F
S11301608FE39CE90197F1F700C000006FE770E0AE
S113017080E290E00E9494038FE39CE90197F1F7F9
S113018000C0000069E870E080E391E00E949403FD
S11301908FE39CE90197F1F700C000006FE870E07D
S11301A080E390E00E9494038FE39CE90197F1F7C8
S11301B000C0000064E970E080E491E00E949403D0
S11301C08FE39CE90197F1F700C000006AE970E051
S11301D080E490E00E9494038FE39CE90197F1F797
S11301E000C0000061EA70E080E591E00E949403A1
S11301F08FE39CE90197F1F700C0000064EA70E026
S113020080E590E00E9494038FE39CE90197F1F765
S113021000C000006AEA70E080E691E00E94940366
S11302208FE39CE90197F1F700C0000060EB70E0F8
S113023080E690E00E9494038FE39CE90197F1F734
S113024000C000006DEB70E080E791E00E94940331
S11302508FE39CE90197F1F700C0000062EC70E0C5
S113026080E790E00E9494038FE39CE90197F1F703
S113027000C000006EEC70E080E891E00E949403FE
S11302808FE39CE90197F1F700C0000063ED70E093
S113029080E890E00E9494038FE39CE90197F1F7D2
S11302A000C000006EED70E080E991E00E949403CC
S11302B08FE39CE90197F1F700C0000064EE70E061
S11302C080E990E00E9494038FE39CE90197F1F7A1
S11302D000C0000065EF70E080EA91E00E949403A2
S11302E08FE39CE90197F1F700C000006AEF70E02A
S11302F080EA90E00E9494038FE39CE90197F1F770
S113030000C0000069E071E080EB91E00E9494037A
S11303108FE39CE90197F1F700C000006FE071E002
S113032080EB90E00E9494038FE39CE90197F1F73E
S113033000C0000069E171E080EC91E00E94940348
S11303408FE39CE90197F1F700C000006FE171E0D1
S113035080EC90E00E9494038FE39CE90197F1F70D
S113036000C000006CE271E080ED91E00E94940313
S11303708FE39CE90197F1F700C0000062E371E0AC
S113038080ED90E00E9494038FE39CE90197F1F7DC
S113039000C0000065E471E080EE91E00E949403E7
S11303A08FE39CE90197F1F700C000006BE471E072
S11303B080EE90E00E9494038FE39CE90197F1F7AB
S11303C000C000006FE471E080EF91E00E949403AC
S11303D08FE39CE90197F1F700C0000063E571E049
S11303E080EF90E00E9494038FE39CE90197F1F77A
S11303F000C000000895EF92FF920F931F93CF93D4
S11304007C01C0E000E010E035C084E08C1B0E9459
S11304105C009B016115710539F4000F111F000F79
S1130420111F000F111F25C0AB0141505109443564
S1130430514040F4000F111F000F111F000F111F36
S1130440016017C0655571406335714040F4000F79
S1130450111F000F111F000F111F02600AC0283A5C
S1130460324038F0000F111F000F111F000F111F31
S11304700360CF5FC53048F2F70111830083C801E0
S1130480CF911F910F91FF90EF9008950F931F93B9
S1130490CF93DF93CDB7DEB7E7970FB6F894DEBFFF
S11304A00FBECDBF9F938F9381E691E09F938F936F
S11304B0CE01C3969F938F930E9402060F900F90D4
S11304C00F900F900F900F9000E011E01DC0BE013F
S11304D06F5F7F4FC8010E944E04BE016D5C7F4F69
S11304E0CE0101960E94F905892B61F4BE01665E76
S11304F07F4FC8019A950E944E04CE014A960E94ED
S1130500590506C0005F1F4F013F81E01807F8F24C
S1130510E7960FB6F894DEBF0FBECDBFDF91CF9143
S11305201F910F910895813019F130F08230E1F17B
S1130530833009F454C0089541110CC02AB381E0FA
S113054090E002C0880F991F6A95E2F78095822394
S11305508ABB0895413009F05CC02AB381E090E081
S113056002C0880F991F6A95E2F7822B8ABB08950F
S113057041110CC027B381E090E002C0880F991F9D
S11305806A95E2F78095822387BB0895413009F08C
S113059040C027B381E090E002C0880F991F6A959C
S11305A0E2F7822B87BB089541110CC024B381E08C
S11305B090E002C0880F991F6A95E2F78095822324
S11305C084BB0895413029F524B381E090E002C052
S11305D0880F991F6A95E2F7822B84BB0895411115
S11305E00CC021B381E090E002C0880F991F6A9586
S11305F0E2F78095822381BB0895413051F421B301
S113060081E090E002C0880F991F6A95E2F7822B7F
S113061081BB0895813019F130F08230E1F18330EB
S113062009F454C0089541110CC02BB381E090E04B
S113063002C0880F991F6A95E2F7809582238BBBCD
S11306400895413009F05CC02BB381E090E002C012
S1130650880F991F6A95E2F7822B8BBB089541118D
S11306600CC028B381E090E002C0880F991F6A95FE
S1130670E2F78095822388BB0895413009F040C099
S113068028B381E090E002C0880F991F6A95E2F7D1
S1130690822B88BB089541110CC025B381E090E002
S11306A002C0880F991F6A95E2F78095822385BB63
S11306B00895413029F525B381E090E002C0880F08
S11306C0991F6A95E2F7822B85BB089541110CC0EE
S11306D022B381E090E002C0880F991F6A95E2F787
S11306E08095822382BB0895413051F422B381E086
S11306F090E002C0880F991F6A95E2F7822B82BBB3
S11307000895811102C06BBB0895813011F468BB58
S11307100895823011F465BB0895833009F462BBF7
S113072008950E94CB0508950F931F93CF93DF93F1
S1130730D82F8B01E92FE170F0E0EE0FFF1F91FB42
S1130740442740F950E0440F551F440F551F92FBB6
S1130750222720F930E0220F331F220F331F220FEC
S1130760331F4E2B242BC22FC06A0E94D70588E06A
S11307700E94EE05813081F58C2F0E94E00588E10E
S11307800E94EE05813041F58D2F0E94E00588E23C
S11307900E94EE05813001F50FC00E94E00588E259
S11307A00E94EE05813049F4CF5F8FE19EE401970A
S11307B0F1F700C0000001C0C0E0F801EC0FF11D2A
S11307C080818111EACF0E94E00588E20E94EE0553
S11307D0813011F40E94DD05DF91CF911F910F91BB
S11307E008951F93CF93DF93182F892F8170C82FFB
S11307F080E0D82FCC0FDD1F91FB442740F950E057
S1130800440F551F440F551F92FB222720F930E057
S1130810220F331F220F331F220F331F4C2B242B85
S1130820C22FC06AD1E0DC0F0E94D70588E00E9485
S1130830EE05813029F58C2F0E94E00588E10E94A5
S1130840EE058130F9F4812F0E94E00588E20E94D0
S1130850EE058130C9F40E94D70580E10E94EE05BF
S11308608130A1F48D2F0E94E00580E40E94EE0502
S1130870813071F40E94E705C82F0E94DD0509C08C
S1130880C0E007C0C0E005C0C0E003C0C0E001C0D4
S1130890C0E08C2FDF91CF911F910895EF92FF92CA
S11308A00F931F93CF93DF937C018B010E94F1037D
S11308B0C0E0D0E00AC0F801EC0FFD1F8083219650
S11308C0C7018C0F9D1F0E94F1039FEF980F9E3F5D
S11308D090F3C00FD11F1882DF91CF911F910F9118
S11308E0FF90EF900895CF93C82F41E065E082E038
S11308F00E940A0340E066E082E00E940A036C2F33
S1130900607F83E00E94810341E067E082E00E940F
S11309100A038FE99FE00197F1F700C0000040E06F
S113092067E082E00E940A038FE99FE00197F1F7F4
S113093000C0000090E1C99FB001112483E00E942F
S1130940810341E067E082E00E940A038FE99FE0AF
S11309500197F1F700C0000040E067E082E00E94E8
S11309600A038FE99FE00197F1F700C00000CF91DF
S11309700895CF93C82F40E065E082E00E940A0307
S113098040E066E082E00E940A036C2F607F83E00F
S11309900E94810341E067E082E00E940A038FE93C
S11309A09FE00197F1F700C0000040E067E082E0BB
S11309B00E940A038FE99FE00197F1F700C000004D
S11309C090E1C99FB001112483E00E94810341E0BA
S11309D067E082E00E940A038FE99FE00197F1F744
S11309E000C0000040E067E082E00E940A038FE953
S11309F09FE00197F1F700C00000CF91089541E016
S1130A0064E083E00E94930241E065E083E00E9499
S1130A10930241E066E083E00E94930241E067E0D4
S1130A2083E00E94930241E065E082E00E94930229
S1130A3041E066E082E00E94930241E067E082E0E8
S1130A400E9493022FE785EB91E021508040904073
S1130A50E1F700C0000082E00E94B9048FE39FE147
S1130A600197F1F700C0000088E20E94B9048FE307
S1130A709FE10197F1F700C000008EE00E94B904E5
S1130A808FE39FE10197F1F700C0000086E00E9428
S1130A90B9048FE39FE10197F1F700C0000081E002
S1130AA00E94B9048FE39FE10197F1F700C00000B1
S1130AB008950F931F93CF938C01C0E003C00E944D
S1130AC07304CF5FF801EC0FF11D80818111F7CF22
S1130AD0CF911F910F910895611102C0805801C0F8
S1130AE080540E94B9040895CF93DF9300D0CDB70A
S1130AF0DEB70E9441000E94FF040E94910360E05F
S1130B0082E00E946C058FE39FE10197F1F700C03A
S1130B10000084E691E00E9459058FE39FE101976C
S1130B20F1F700C0000061E083E00E946C058FE3F0
S1130B309FE10197F1F700C0000089E691E00E946F
S1130B4059059FEF23ED80E3915020408040E1F769
S1130B5000C000000E947A001A821982EE24E394F5
S1130B60F12C01C07801CE0101960E94FB018C0199
S1130B70E816F906B9F381E00E94B9048FE39FE116
S1130B800197F1F700C0000082E00E94B904C80197
S1130B900E944602E7CF8AE080B981B1816081B9C1
S1130BA081B18D7F81B986B7846086BF089584EA58
S1130BB086BF06B607FEFDCF089584E986BF089573
S1130BC083B984E886BF06B607FEFDCF089584E89E
S1130BD086BF06B607FEFDCF83B1089521B190E02C
S1130BE0287F30E08217930711F481E0089580E0B4
S1130BF00895FB01DC018D91019080190110D9F356
S1130C00990B0895AEE0B0E0E8E0F6E00C94C30878
S1130C100D891E8986E08C831A8309838FEF9FE7F1
S1130C209E838D83AE01475E5F4F6F89788DCE01C1
S1130C3001960E942406EF81F885E00FF11F1082CF
S1130C402E96E4E00C94DF08ABE0B0E0EAE2F6E0D4
S1130C500C94B5086C017B018A01FC011782168291
S1130C60838181FFCCC1CE0101963C01F6019381C1
S1130C70F70193FD859193FF81917F01882309F406
S1130C80BAC1853239F493FD859193FF81917F0137
S1130C90853229F4B60190E00E941B08E7CF912C1D
S1130CA0212C312CFFE1F315D8F08B3279F038F494
S1130CB0803279F08332A1F4232D20611DC08D325E
S1130CC061F0803369F4232D216016C0832D826086
S1130CD0382EE32DE4603E2E2AC0F32DF8601DC0AB
S1130CE037FC2DC020ED280F2A3040F08E32B9F4A5
S1130CF036FC81C1232D2064322E19C036FE06C075
S1130D008AE0989E200D1124922E11C0EAE02E9EB6
S1130D10200D1124222EF32DF0623F2E08C08C36B4
S1130D2021F4832D8068382E02C0883641F4F701FF
S1130D3093FD859193FF81917F018111B3CF982F0A
S1130D409F7D9554933028F40C5F1F4F9FE3998344
S1130D500DC0833631F0833771F0833509F059C003
S1130D6021C0F801808189830E5F1F4F88248394FA
S1130D70912C530113C02801F2E04F0E511CF801CD
S1130D80A080B18036FE03C0692D70E002C06FEF11
S1130D907FEFC5010E9410084C018201F32DFF77FB
S1130DA03F2E16C0280122E0420E511CF801A080FB
S1130DB0B18036FE03C0692D70E002C06FEF7FEF93
S1130DC0C5010E9405084C01F32DF0683F2E8201F5
S1130DD033FC1BC0822D90E088169906B0F4B6014E
S1130DE080E290E00E941B082A94F4CFF50137FCBE
S1130DF0859137FE81915F01B60190E00E941B0846
S1130E0021102A9421E0821A91088114910471F727
S1130E10E8C0843611F0893641F5F80137FE07C081
S1130E2060817181828193810C5F1F4F08C0608152
S1130E307181072E000C880B990B0E5F1F4FF32D49
S1130E40FF763F2E97FF09C0909580957095619528
S1130E507F4F8F4F9F4FF0683F2E2AE030E0A30171
S1130E600E945708882E861845C0853731F4232DF3
S1130E702F7EB22E2AE030E025C0932D997FB92E23
S1130E808F36C1F018F4883579F0B5C0803719F081
S1130E90883721F0B0C0E92FE061BE2EB4FE0DC04A
S1130EA0FB2DF460BF2E09C034FE0AC0292F266032
S1130EB0B22E06C028E030E005C020E130E002C0D8
S1130EC020E132E0F801B7FE07C0608171818281C0
S1130ED093810C5F1F4F06C06081718180E090E0B8
S1130EE00E5F1F4FA3010E945708882E8618FB2D02
S1130EF0FF773F2E36FE0DC0232D2E7FA22E8914A0
S1130F0058F434FE0BC032FC09C0832D8E7EA82E0B
S1130F1005C0B82CA32C03C0B82C01C0B92CA4FE66
S1130F200FC0FE01E80DF11D8081803321F49A2D5C
S1130F30997EA92E09C0A2FE06C0B394B39404C03E
S1130F408A2D867809F0B394A3FC11C0A0FE06C0D4
S1130F50B21488F4280C922C9B180EC0B21460F4BE
S1130F60B60180E290E00E941B08B394F7CFB2145C
S1130F7018F42B1802C0982C212CA4FE10C0B60122
S1130F8080E390E00E941B08A2FE17C0A1FC03C0EE
S1130F9088E790E002C088E590E0B6010CC08A2D95
S1130FA0867859F0A1FE02C08BE201C080E2A7FC62
S1130FB08DE2B60190E00E941B08891438F4B60152
S1130FC080E390E00E941B089A94F7CF8A94F3017F
S1130FD0E80DF11D8081B60190E00E941B0881108C
S1130FE0F5CF222009F442CEB60180E290E00E94BF
S1130FF01B082A94F6CFF6018681978102C08FEFF1
S11310009FEF2B96E2E10C94D108FC01059061500E
S113101070400110D8F7809590958E0F9F1F08950A
S1131020FC016150704001900110D8F780959095B3
S11310308E0F9F1F08950F931F93CF93DF93FB0190
S1131040238121FD03C08FEF9FEF2CC022FF16C028
S113105046815781248135814217530744F4A08186
S1131060B1819D012F5F3F4F318320838C93268173
S113107037812F5F3F4F3783268314C08B01EC01E8
S1131080FB010084F185E02D0995892BE1F6D80157
S113109016968D919C911797019617969C938E9313
S11310A01697CE01DF91CF911F910F910895FA0108
S11310B0AA27283051F1203181F1E8946F936E7F93
S11310C06E5F7F4F8F4F9F4FAF4FB1E03ED0B4E084
S11310D03CD0670F781F891F9A1FA11D680F791FC5
S11310E08A1F911DA11D6A0F711D811D911DA11DD6
S11310F020D009F468943F912AE0269F11243019E6
S1131100305D3193DEF6CF010895462F4770405D80
S11311104193B3E00FD0C9F7F6CF462F4F70405D2F
S11311204A3318F0495D31FD4052419302D0A9F78A
S1131130EACFB4E0A6959795879577956795BA9584
S1131140C9F700976105710508959B01AC010A2E4A
S113115006945795479537952795BA95C9F7620F21
S1131160731F841F951FA01D08952F923F924F92C5
S11311705F926F927F928F929F92AF92BF92CF9223
S1131180DF92EF92FF920F931F93CF93DF93CDB72C
S1131190DEB7CA1BDB0B0FB6F894DEBF0FBECDBFA4
S11311A009942A88398848885F846E847D848C8475
S11311B09B84AA84B984C884DF80EE80FD800C817E
S11311C01B81AA81B981CE0FD11D0FB6F894DEBF61
S10F11D00FBECDBFED010895F894FFCFD1
S11311DC48656C6C6F21003137353200486F7720CD
S11311EC61726520796F752E0031343031360067A9
S11311FC6F6F64206279652E00313430333400779C
S113120C6F77210031333937300077686174212EC0
S113121C003832006E696365210031343032370096
S113122C6920616D2068756E6772792E00313732D2
S113123C380049204C6F766520796F752E00313556
S113124C33360069206861746520796F7500313319
S113125C383939007768617420646F20796F752090
S113126C77616E74003137333100692077616E74A5
S113127C20746F2068656C70003133393731004944
S113128C2063616E20736565003134303430007333
S113129C656520796F7920736F6F6E00313430344B
S11312AC33006920646F6E7420756E646572737498
S11312BC616E642E003134303139006D652E003589
S11312CC37360067726561742070726F6A65637477
S11312DC00257500446561660050726F6A6563741D
S10912EC2E414D4954009F
S9030000FC
